:1000000000800020BD010000852000003D20000090
:100010003D2000003D2000003D2000003D2000006C
:100020003D2000003D2000003D2000008520000014
:10003000852000003D200000FD3300000135000058
:10004000852000008520000085200000852000001C
:10005000852000008520000085200000852000000C
:1000600085200000852000008520000085200000FC
:1000700085200000852000008520000085200000EC
:1000800085200000852000008520000085200000DC
:1000900085200000852000008520000085200000CC
:1000A00085200000852000008520000085200000BC
:1000B00085200000852000008520000085200000AC
:1000C000852000008520000085200000852000009C
:1000D000852000008520000085200000852000008C
:1000E000852000008520000085200000852000007C
:1000F00085200000D541000085200000014300005C
:10010000852000002D44000085200000852000008F
:10011000852000008520000085200000852000004B
:10012000852000008520000085200000852000003B
:10013000852000008520000085200000852000002B
:10014000852000008520000085200000852000001B
:10015000852000008520000085200000852000000B
:1001600085200000C92600008520000085200000B1
:1001700085200000852000008520000085200000EB
:1001800085200000852000008520000085200000DB
:1001900085200000852000008520000085200000CB
:1001A00085200000852000008520000085200000BB
:1001B000852000008520000085200000564B4CF271
:1001C000205210B51A804DF628121A8000BF00BFC9
:1001D00001F05CFF514B4FF010621A60504A9A6078
:1001E000504ADA60504A136813F4807304D14F49BF
:1001F0000B604FF4A85313604D4B1A78110703D5C9
:100200001A7842F008021A704A4B4B492A221A7097
:100210004A4A4B4B8B4204D252F8040F43F8040B6A
:10022000F8E7484B484900228B4202D243F8042B9E
:10023000FAE74649464A002352F8230041F82300D2
:1002400001336F2BF8D1434B434A802103F8011B44
:100250009342FBD1414B3D4A1A60414B8A221A70AE
:10026000A3F5805324225A70A0221A709A7992071B
:10027000FCD59A79D406FCD43A4A937903F00C035E
:10028000082B384BF9D103221A7140225A719A79FE
:100290009006FCD5334A9179324B4906FBD5324A58
:1002A000324911600221516020221A709A7902F0BD
:1002B0000C020C2AFAD12E4B2E4A1A602E4B2F4AD2
:1002C0001A6000225A60072243F8042C2C4AC3F813
:1002D0000C2D62B602F0D0F8144B1B68DA0705D576
:1002E000284801F04FFF284B284A1A60284B1B78FA
:1002F0005B0609D5244C254B22689A4204D121483B
:1003000001F040FF0023236006F030FD01F0C4FE41
:1003100003F0FEF8FEE700BF0E20054030800440E9
:10032000823F04000100002B10D0034014D0034092
:1003300002D0074000E00740A092FF1F0CBA000067
:100340002087FF1FA092FF1FB4D7FF1F0082FF1F4F
:100350000000000000E400E05FE400E008ED00E0E1
:100360000050064000400640448004400000030165
:1003700004800440C010050014E000E0FF76010096
:100380000000202021BEA7041CE00340A5C3945A0E
:1003900000F00740FFFFFFFFFFFFFFFFFFFFFFFF32
:1003A000FFFFFFFFFFFFFFFFFFFFFFFFFFFFFFFF5D
:1003B000FFFFFFFFFFFFFFFFFFFFFFFFFFFFFFFF4D
:1003C000FFFFFFFFFFFFFFFFFFFFFFFFFFFFFFFF3D
:1003D000FFFFFFFFFFFFFFFFFFFFFFFFFFFFFFFF2D
:1003E000FFFFFFFFFFFFFFFFFFFFFFFFFFFFFFFF1D
:1003F000FFFFFFFFFFFFFFFFFFFFFFFFFFFFFFFF0D
:10040000FFFFFFFFFFFFFFFFFFFFFFFFDEF9FFFF23
:1004100010B5054C237833B9044B13B10448AFF33E
:1004200000800123237010BDA092FF1F0000000078
:1004300010BA0000084B10B51BB108490848AFF3CB
:1004400000800848036803B910BD074B002BFBD0A0
:10045000BDE81040184700BF00000000A492FF1F35
:1004600010BA0000A092FF1F0000000010B5044663
:1004700003F0FAF9204610BD10B50446203003F011
:10048000F3F904F1100003F0EFF9204603F0ECF962
:10049000204610BD10B5044B04461968022203F033
:1004A00069FA204610BD00BF3C87FF1F10B5044B02
:1004B00004461968022203F05DFA204610BD00BF11
:1004C0005887FF1F10B5044B04461968022203F039
:1004D00051FA204610BD00BF5CD4FF1F10B5044B7D
:1004E000044619780A2203F031FA204610BD00BFF5
:1004F0007CD4FF1F10B588B004460D4904A803F052
:10050000F3F90C4B0A221968684603F01FFA694692
:1005100004A803F099FA0146204603F0F9F9684669
:1005200003F0A2F904A803F09FF9204608B010BD1B
:10053000C8B200008C87FF1F10B50446044801F0C4
:1005400069F802220146204603F014FA204610BD45
:10055000C092FF1F30B5044689B0084603F05CFB2B
:10056000104D0146284601F0ADF80F4904A803F0EC
:10057000BBF9284601F04EF802220146684603F016
:10058000F9F9694604A803F05FFA0146204603F032
:10059000BFF9684603F068F904A803F065F920463E
:1005A00009B030BDC092FF1FC8B200002DE9F04174
:1005B000054688B0084603F02FFB4FF07E573946BA
:1005C000804606F047FB08B31B4E43F6FF713760C9
:1005D0001A4801F0B7F804A8194903F085F9022276
:1005E0003168684603F0C6F9694604A803F02CFA9E
:1005F0000146284603F08CF9684603F035F904A853
:1006000003F032F9284608B0BDE8F081002704461F
:100610003946404606F000FB074E48B90949C6F87E
:100620000080404606F05AF906F05AFB81B2CFE747
:1006300021463760CCE700BF3C87FF1FC092FF1FF9
:10064000C8B2000000FC7F462DE9F041044688B0A6
:10065000084603F0E1FA4FF07E563146074606F0B1
:10066000F9FA00B31C4D00212E60282001F09CFDFA
:1006700004A81A4903F038F902222968684603F0F1
:1006800079F9694604A803F0DFF90146204603F032
:100690003FF9684603F0E8F804A803F0E5F82046BF
:1006A00008B0BDE8F0814FF000083846414606F03A
:1006B000B3FA094D58B9394630462F6006F004F8B0
:1006C000074906F00BF906F0E5FA0146CDE740F6DA
:1006D000FF71C5F80080C8E75887FF1FC8B2000047
:1006E00000F07F4538B50A4C0546204600F072FF01
:1006F00014222046074900F0BDFF2046064900F0BD
:10070000E1FF2846054903F0EFF8284638BD00BF51
:10071000C092FF1F002D310100247449D0B20000A7
:1007200030B5044689B0084603F070FA0F4D104901
:10073000031C18BF012304A82B7003F0D5F80A226C
:100740002978684603F002F9694604A803F07CF9A9
:100750000146204603F0DCF8684603F085F804A85B
:1007600003F082F8204609B030BD00BF7CD4FF1FE3
:10077000C8B2000030B5044689B0084603F046FA16
:100780000D4D0E49286004A803F0AEF80A2229682E
:10079000684603F0DBF8694604A803F055F9014602
:1007A000204603F0B5F8684603F05EF804A803F0AD
:1007B0005BF8204609B030BD8C87FF1FC8B200002F
:1007C00010B5044B04461968022203F0D3F8204602
:1007D00010BD00BF5CD4FF1F2DE9F04F624D634E8A
:1007E0000F4680460FCD34460FC495E80F008DB0FC
:1007F00084E80F00394604A803F08AF804A95C488D
:1008000002F090FE5A4802F0B3FE3946584802F012
:1008100089FE574802F0ACFE3B21384603F004F94C
:1008200004210246304601F04BF8002800F0938086
:10083000B76831684F4D4D4C384605F045FF81464D
:10084000306905F0F7FF0146484606F0FBF84A4AD2
:100850004A4B12680392039A1A60B3692860002B0E
:100860006CD0012B5FD1384605F0B6FB03F092FE49
:10087000824620688B4605F0AFFB03F08BFE0246F4
:100880000B465046594605F047FA05F0C9FE0746A3
:10089000206905F0CFFF0146384606F0D3F82860FE
:1008A000A06805F099FB03F075FE824620688B4630
:1008B00005F092FB03F06EFE02460B465046594689
:1008C00005F02AFA824620698B4605F0B3FF05F051
:1008D00083FB0B4602465946504605F0FBFC05F0EB
:1008E0009FFE0A22014608A803F044F808A9204800
:1008F00002F018FE1E4802F03BFE08A802F0B4FF0A
:100900001F4B1A4D32681A600FCD1E4C1E4F0FC47C
:1009100095E80F0084E80F0001231C493B70404616
:1009200002F0E2FF03E01A49404602F0DDFF04A8AE
:1009300002F09AFF40460DB0BDE8F08F05F04CFB89
:100940000F2402460B460094094802F061FE084855
:1009500002F00EFED4E706210E4802F0E9FB04483F
:1009600002F006FE64E700BFA8B200003893FF1F44
:100970004088FF1FF892FF1FBCD4FF1FF893FF1F92
:10098000A887FF1F5CD4FF1F90D4FF1FFCB200009C
:10099000E8B20000E0B20000F0B5504C504A2260CE
:1009A0000B4695B03B210546184603F03DF8022161
:1009B0000246204600F084FF002800F08680494B64
:1009C000A66801221A704FF07C51304605F086FF70
:1009D0000146206805F078FE0222014604A802F0D4
:1009E000C9FF04A908A802F093FF2C2108A803F06E
:1009F00041F84FF07C510746A06805F06FFF216871
:100A000005F064FE022201460CA802F0B3FF0CA917
:100A1000384603F019F82C2103F02CF8324904462B
:100A2000304605F05BFF314906F00CF80222014622
:100A300010A802F09FFF10A9204603F005F8014618
:100A4000684602F065FF10A802F00EFF0CA802F045
:100A50000BFF08A802F008FF04A802F005FF694692
:100A6000234802F05FFD224802F082FD694610A88B
:100A7000FFF7B2FE10A802F0F7FE1E481E4B1F49FA
:100A800000240460002203F1200043F8042F984260
:100A900041F8042F4FF00004F7D1194A194B1460A4
:100AA00019491A481A4E0C6000221A60194B1A4A4A
:100AB0001A49046028461A60346002F015FF68463F
:100AC00002F0D2FE284615B0F0BD0621144802F00F
:100AD0002FFB074802F04CFD71E700BF3CD4FF1F1D
:100AE0006048984AF493FF1F0000C0400000A041F6
:100AF0004088FF1F20D4FF1FD093FF1F9893FF1F34
:100B0000D093FF1FFC92FF1F38D4FF1F1093FF1FCD
:100B10003493FF1FC487FF1F0024744914B30000DF
:100B2000E0B20000FFFFFFFF2DE9F0410C2088B08C
:100B300001F038FC0121282001F04AFC0D2001F0D1
:100B4000ADF96D4C00210F2001F042FC00210E2078
:100B500001F03EFC204601F051F8684AE37A126841
:100B6000C3B172B6E37ADD07194606D56448E16879
:100B700005682940A16101601946980706D56148BA
:100B800023690568E17A2B40E36103604B0700F1BC
:100B9000A78062B62368D968914207D05A48186086
:100BA0005A49DA6042F08040186119601422DFF877
:100BB000948157495748584F584E594C594D00F059
:100BC00059FD5949534800F07DFD414602A802F005
:100BD0009FFED8F81020D8F814305448069202A985
:100BE000079300F0B7FE02A802F03EFE394602A8C5
:100BF00002F08EFE3A697B694C48069202A907937F
:100C000000F0A8FE02A802F02FFE314602A802F072
:100C10007FFE326973694548069202A9079300F086
:100C200099FE02A802F020FE214602A802F070FE02
:100C3000226963693D48069202A9079300F08AFE83
:100C400002A802F011FE294602A802F061FE384C0B
:100C50002A696B693548069202A9079300F07AFE6B
:100C600002A802F001FE214602A802F051FE314D19
:100C7000226963692D48069202A9079300F06AFE73
:100C800002A802F0F1FD294602A802F041FE2A4C1A
:100C90002A696B692548069202A9079300F05AFE5B
:100CA00002A802F0E1FD214602A802F031FE22690D
:100CB00063691E48069202A9079300F04BFE02A842
:100CC00002F0D2FD022300931C4809A3D3E90023BC
:100CD00002F09EFC194802F04BFC08B0BDE8F08120
:100CE000174963690868034023620B6051E700BF3E
:100CF00088855AD3BCE3643FF887FF1F0CD4FF1FDD
:100D000080E100E084E100E001401F0000001F805E
:100D1000002D3101C092FF1FC887FF1FE087FF1F12
:100D20007487FF1FAC87FF1F002474495893FF1F6F
:100D30004087FF1F2487FF1F5C87FF1F4088FF1F1E
:100D400088E100E09087FF1F2DE9F04FA54EA648EF
:100D50009FB000F019FE337813B91FB0BDE8F08FD3
:100D6000A24BDFF8D8821B680593059AA04FD8F8EC
:100D7000003038689F4DA04CD31A019305F08AFFCC
:100D800005F058FD01469D4800F09CFC2B680F20A3
:100D9000C3F30A0901F0B6F804EBC9092B68A9F8F6
:100DA0000400C3F30A093B6844F839300E2001F00F
:100DB000A9F8934B04EBC9091B78A9F80600002B8E
:100DC0005ED02B68DFF878B2C3F30A0304EBC303E9
:100DD000DBF80020B3F804A00392504602F00709A4
:100DE000029305F023FD029B864ADB8842F8290026
:100DF0001846029305F01AFD039A834B0132CBF893
:100E0000002043F82900504602F0070905F012FDC2
:100E10007E4BDFF80CB2196805F058FC794B53F89B
:100E2000291005F051FC029B82461846774BC3F807
:100E300000A005F0FFFCDBF8001005F047FC724B4A
:100E400053F8291005F040FC714BCBF800008146A7
:100E50001968504605F0FEFE28B16D4A6D4BC2F888
:100E600000A03A681A60DFF8DCA14846DAF8001002
:100E700005F0D2FE20B1684B3A68CAF800901A60BB
:100E8000DFF8C491D9F80030002B62DD0222396806
:100E900006A802F06FFD06A90AA802F039FD5F4915
:100EA0000AA802F0D9FD2B68C3F30A0304EBC303BD
:100EB0000A22998882460EA802F048FD0EA95046E3
:100EC00002F0C2FD554902F0C7FD2B68C3F30A03C7
:100ED00004EBC3040A22E188824612A802F036FD20
:100EE00012A9504602F0B0FD4C4902F0B5FD474B47
:100EF00002221968044616A802F03CFD16A92046F5
:100F000002F0A2FD454902F0A7FD454B02221968F7
:100F100004461AA802F02EFD1AA9204602F094FDFC
:100F20000146404802F0FEFA3E4802F021FB1AA8B2
:100F300002F09AFC16A802F097FC12A802F094FCAA
:100F40000EA802F091FC0AA802F08EFC06A802F09E
:100F50008BFC2B68344C013322692B60019B93423C
:100F600026DCA369002B00F04581012B7FF4F5AE50
:100F7000019805F05FFC2D4B196805F0AFFC05F0FA
:100F80002BF880462068894605F026F803F002FB1E
:100F900002460B464046494604F0C0FE02460B4658
:100FA0000020234903F076FB05F03AFB3860D4E6D5
:100FB000204BA2681B783A60002B40F08480104BD5
:100FC0001B78002B7AD01C4F3D68032D40D8DFF8EA
:100FD0007CE0BEE80F0026460FC69EE80F0086E8BC
:100FE0000F007FE090D4FF1F5893FF1FBCD4FF1F5A
:100FF000A887FF1F24D4FF1FFC93FF1FC092FF1F71
:10100000F493FF1FD493FF1F9C93FF1FD093FF1FE8
:101010003493FF1F38D4FF1F1093FF1F1CB3000031
:10102000CC93FF1F4088FF1F5CD4FF1FF892FF1F67
:10103000000024407CD4FF1F20D4FF1FF893FF1F23
:10104000FC92FF1FC487FF1F8C87FF1F3893FF1F71
:1010500094491AA802F048FC934B0222196816A87A
:1010600002F088FC16A91AA802F0EEFC01468F488F
:1010700002F058FA8D4802F07BFA16A802F0F4FB51
:101080001AA802F0F1FB8A491AA802F02DFC894B3C
:101090000222196816A802F06DFC16A91AA802F01F
:1010A000D3FC0146814802F03DFA804802F060FA24
:1010B00016A802F0D9FB1AA802F0D6FB7E4A00233C
:1010C0003370137049E67C4B7C4E1F780FCE25465B
:1010D0000FC596E80F0085E80F00002F00F0818013
:1010E000774F3D68704E774A336842F825304FEAB3
:1010F000450B0BF10100029305F098FBDFF8E8A126
:101100000146DAF8000005F09DFC013501903D60D4
:101110000BF1030005F08AFB05460146206805F047
:10112000DDFB29462060A06805F0D8FB019AA0608D
:101130002946104605F0D2FBD9F80020CAF8000075
:10114000002A029B62DD57495A4C5F4F5F4D1AA837
:1011500002F0CAFB0222316816A802F00BFC16A9A5
:101160001AA802F071FC0146504802F0DBF94F4822
:1011700002F0FEF916A802F077FB1AA802F074FB41
:101180004B491AA802F0B0FB0222216816A802F00F
:10119000F1FB16A91AA802F057FC0146434802F0D9
:1011A000C1F9424802F0E4F916A802F05DFB1AA862
:1011B00002F05AFB464B4749002203F1200E43F848
:1011C000042F734541F8042F4FF00000F7D1424936
:1011D000424A2060424B3060002438600C6010604E
:1011E0002B60404B1B681A931A9BC8F800301FB045
:1011F000BDE8F08F019805F01DFB3B4B196805F029
:101200006DFB216805F062FA3860A6E519460222F6
:101210000AA802F0AFFB0AA90EA802F079FB0EA8FB
:101220003249294F234C294D02F016FC02228146F7
:10123000396812A802F09EFB12A9484602F004FC8D
:101240002A4902F009FC02228146216816A802F010
:1012500091FB16A9484602F0F7FB244902F0FCFB7B
:101260000222814629681AA802F084FB1AA948467E
:1012700002F0EAFB01460D4802F054F90B4802F077
:1012800077F91AA802F0F0FA16A802F0EDFA12A8FF
:1012900002F0EAFA0EA802F0E7FA0AA802F0E4FA6D
:1012A00088E700BF20B3000038D4FF1F4088FF1F2D
:1012B00030B300001093FF1FF493FF1F3893FF1FFC
:1012C00020D4FF1F10D4FF1F3493FF1FC487FF1FBC
:1012D000D093FF1F9893FF1FFC92FF1FD093FF1F17
:1012E00000247449BCD4FF1FF892FF1F40B30000D4
:1012F0002DE9F047072184B0062205238DE80E0072
:10130000624D6348634CDFF8D481634EDFF8D0A1AF
:10131000624FDFF8D091082309220A2100F0F6F885
:101320005F4B604A1A6028460A2100F05FFA2246A5
:1013300028465D495D4D05F0F3FC40465C4902F0EE
:10134000D3FA22463146404605F0EAFC4146504673
:1013500002F0DEFA22462946504605F0E1FC384606
:101360005449DFF88481DFF884A102F0BDFA2246F7
:101370003146384605F0D4FC3946484602F0C8FAF2
:1013800022462946484605F0CBFC40464A494B4F89
:10139000DFF85C9102F0A8FA22463146404605F09B
:1013A000BFFC4146504602F0B3FA22462946504659
:1013B00005F0B6FC38464249DFF83881DFF838A13D
:1013C00002F092FA22463146384605F0A9FC394629
:1013D000484602F09DFA22462946484605F0A0FC00
:1013E00040463849384FDFF8149102F07DFA224622
:1013F0003146404605F094FC4146504602F088FADA
:1014000022462946504605F08BFC38462F49DFF826
:10141000F080DFF8F0A002F067FA22463146384645
:1014200005F07EFC3946484602F072FA224629460B
:10143000484605F075FC40462549264FDFF8C89020
:1014400002F052FA22463146404605F069FC414618
:10145000504602F05DFA22462946504605F060FCEF
:1014600038461D4902F040FA22463146384605F01A
:1014700057FC3946484602F04BFA22462946484670
:1014800004B0BDE8F04705F04BBC00BF5893FF1F08
:10149000C092FF1F2087FF1F693800001493FF1FB1
:1014A0000CD4FF1F03200338790400006D040000F2
:1014B00044B300004CB3000054B3000094D4FF1FA9
:1014C00058B3000060B30000BC93FF1F68B3000076
:1014D00070B300000093FF1F78B3000028D4FF1FF3
:1014E0009087FF1FC887FF1FFCD3FF1FE087FF1FE8
:1014F0002487FF1F80D4FF1F7487FF1FAC87FF1F47
:101500002493FF1F5C87FF1F4087FF1F2DE9F843CF
:101510002E4D4270B5F808C0B5F80CE02F8A35F8AA
:10152000042B837004462B88DFF8A49001704FF0E1
:10153000040800259DF8206084F829806285A38531
:101540009DF824209DF82830A4F82EC04FF0000804
:10155000A4F830E02271637108466786C4E90889FF
:10156000E67084F82850012100F032FF60780121F4
:1015700000F02EFFA078012100F02AFFE078012181
:1015800000F026FF2079012100F022FF607901217F
:1015900000F01EFF2078012100F014FF294660783A
:1015A00000F010FF2946A07800F00CFF2946E078F3
:1015B00000F008FF2946207900F004FF60792946F1
:1015C00000F000FF2046BDE8F88300BF80B30000B4
:1015D0000000F04110B501210446407800F0F2FE11
:1015E000012000F0FBFE60780021BDE8104000F013
:1015F000E9BE00BF10B501210446807800F0E2FE8C
:10160000012000F0EBFEA0780021BDE8104000F0C2
:10161000D9BE00BF80687047F8B50D460646002168
:101620000078144600F0CEFE114A2B7811684FF076
:101630000042CA624B63CB6A002BFCDA6B788A6B80
:101640007BB1601E00224FF0004410F8013FCC62D5
:101650004B63CB6A002BFCDA6B788F6B01329342C1
:10166000F3DC30780121BDE8F84000F0ABBE00BFEC
:10167000F887FF1F30B501FB02F383B00446036116
:1016800041611546FFF7A6FF0C4922690C4B0988FA
:10169000ADF80010182000219A428DF804008DF852
:1016A000051008D9ED0004356946204601AA8DF8D9
:1016B0000650FFF7B1FF03B030BD00BF94B3000088
:1016C0003F787D01F0B5044685B08160084604F09E
:1016D00083FCD4E9082304F0D3FC064620690F46B6
:1016E00005F0A4F804F078FC02460B463046394673
:1016F00004F0F0FD04F074FF04AA002342F8043D56
:101700000F4BE0601B888DF80B00070E060C050AD6
:1017100004F128012046ADF804308DF808708DF8EA
:1017200009608DF80A50FFF777FF204601A902AA49
:10173000FFF772FF2046FFF75DFF05B0F0BD00BF69
:1017400080B3000070B5B1F5804F86B028BF43F676
:10175000FF7104461022018302A802F0F7F802A9E3
:10176000164801F0DFFE154801F002FF02A802F062
:101770007BF8238B8DF8053000251B0A02AA04F1A3
:101780002801204602268DF804308DF808608DF877
:1017900009508DF80A508DF80B50FFF73DFF01AA54
:1017A00004F132012046FFF737FF2046FFF722FF02
:1017B0006079012100F006FE06B070BD4088FF1F71
:1017C00038B5074D07490446284601F0ABFE2846C8
:1017D00001F0CEFE2046044902F086F8204638BDCE
:1017E0004088FF1FA4D4FF1FD8B300002DE9F041AB
:1017F0000D4686B000F110082C49064602F074F838
:101800002B49404602F070F82A4906F1200002F008
:101810006BF8B5F1AA6F98BF05EB45004FF00503D3
:101820004FF000014FF4E13298BFC00033643563DC
:101830007163F26394BF08304FF0FF3001F070FE27
:10184000182380E8280000F108076C1E4DB13D46C2
:101850002846013C002102F047F8631C05F11805F9
:10186000F6D10023144AB7634146684601930093BA
:10187000029303930492059202F04AF8B46B69460E
:10188000204602F091F8736B059A049921610133A7
:101890006261316C7363094801F0B2FF684601F080
:1018A000E3FF304606B0BDE8F08100BF98B300000A
:1018B000A8B30000ACB30000C11700004088FF1FB0
:1018C000002945DD2DE9F043884685B0164681465E
:1018D0000746002512E0012B03D102F097F949F8E1
:1018E00035000021621C304602F046F90135684699
:1018F00001F0BAFFA84507F1080725D02C21304692
:1019000002F006F9421C04460ED023466846002227
:10191000314602F00DF93B796846002BDBD102F02D
:101920007BF949F83500DCE73B21304602F0F0F85E
:10193000431C0446E9D109EBC5056879B0FA80F08B
:10194000400905B0BDE8F083012005B0BDE8F08393
:101950000120704770B5436B046BA34201D3002094
:1019600070BD866B03EB430306EBC30604463046AB
:101970000D4602F019F8636B29696A6972610133D7
:1019800031610120636370BDF0B58DB078223B49B1
:101990000646684601F036FF68463B2102F0B8F87B
:1019A000421C64D007463B460022694604A802F068
:1019B000BFF8736B002B46D00024254604E0736B00
:1019C000AB4204F118043ED9B16B04A8214402F0E3
:1019D0007BF801350028F2D0B36B234400219A68CC
:1019E00004A802F0C9F804A802F0E2F83F2104A814
:1019F00002F08EF8B36B1C44013014BF6369236995
:101A000004A908A8984708A91C4801F08BFD1B48A9
:101A100001F0AEFD08A801F027FF7A1C00216846FE
:101A200002F0AAF83B21684602F072F8074604A8C3
:101A300001F01AFF7B1CB6D1684601F015FF0124A6
:101A400020460DB0F0BD06F1200108A801F060FFAE
:101A50000B4908A802F000F80146084801F062FDB1
:101A6000064801F085FD08A801F0FEFED5E76846AE
:101A700001F0FAFE002420460DB0F0BD4088FF1FA3
:101A8000B4B3000010B5064C0649204601F02CFF07
:101A90002046054A0549BDE8104005F041B900BFA0
:101AA000A4D4FF1FCCB300002087FF1F69380000BB
:101AB00010B4047F4160022CC26002D010BC01F05F
:101AC0003BBC836810BC1847F0B4464B464A186BC1
:101AD000DC6A01791170454922790A709A6A0079A5
:101AE0000870002A46D05968C9688A423ED82168E1
:101AF000CC8B240402F1FF3065D4C0F30E00C88300
:101B0000C88B80B2C882196B0968C88B000452D494
:101B1000C2F30E00C883C88B002480B212F1FF32DA
:101B2000C88218BF01229C62D96A2E4809680D68D4
:101B300000F12404A54236D00068C46814F0804F38
:101B40000C680D6815BF248824780235013544F0EF
:101B500000440D604463196B254B097919702149C4
:101B600012B1CA6A12791A70F0BC7047521A9A629E
:101B70000122D9E7586B196805681E4C0A63CC62CC
:101B8000CC682D681C4E24F080440327B542CC60FD
:101B900083F825701FD1037F4260022BC2601ED0E4
:101BA000F0BC01F0C9BB016890F82400CC6840F09B
:101BB00000404863CFE7CC8BC2F3080004F47E44B6
:101BC0002043C883A7E7CC8BC0F3080004F47E440D
:101BD0002043C88394E72B461146F0BC184783681E
:101BE000F0BC1847F887FF1F1F8000401C80004092
:101BF0001B80004000000FFFB11A000090E80C00AD
:101C0000F0B41C6859682568164F174E29432160A7
:101C1000164D17491760D66015611160417A154A53
:101C20005C180A3194F8244053F8215002EBC401A7
:101C300049680D60017A5C1803EB8101247ECD694F
:101C400002EBC40149680D60817A581803EB8103E7
:101C500090F83000596B02EBC002F0BC5368196079
:101C6000704700BF01401F000110003801100078CC
:101C700000001F8080B40000374A384913681B06F3
:101C8000FCD40B6813F08003F8D172B634490A789B
:101C9000002A5FD0334A3448F0B4344C17680668E1
:101CA0002568D4680C303E44143200681268304F06
:101CB00035442C4420440244C2F34E022D4E2E489B
:101CC0002E4D2F4C42F400423A60376806682D686A
:101CD0002C4A24680C303E44006812682A4F354470
:101CE0002C4420440244C2F34E02284E2848294D79
:101CF000294C42F400423A60376806682D68274A4A
:101D000024680C303E4400681268254F35442C444A
:101D100020440244C2F34E02224E2348234D244C59
:101D200042F400423A60376806682D68214A246808
:101D30000C303E440068126835442C442044024470
:101D4000C2F34E021C4842F4004202600B7062B6BD
:101D5000F0BC704762B6704724B0034024B00B401B
:101D6000B5D4FF1F38B003403CB0034040B003403F
:101D70002CB0034058B003405CB0034060B0034057
:101D800064B003406CB0034030B0034038B00B4047
:101D90003CB00B4040B00B4044B00B404CB00B404B
:101DA0002CB00B4058B00B405CB00B4060B00B4007
:101DB00064B00B406CB00B4030B00B4030B42948DD
:101DC000294A2A4B2A4D6024E121047011701B78A6
:101DD000284C082B30D00A2B2748284937D00C2B09
:101DE0000CBF35223D2212232A60236002600B6063
:101DF000234B24491B78244ABBB101230B60136099
:101E0000224B23491B78234A012B26D9042B0FD9B7
:101E1000082B1ED9102B94BF862387230B601360D9
:101E20001D4B01221A7030BC70470B601360E7E74E
:101E300084230B601360F3E700F58E200F49083010
:101E4000012213232A60236002600B60D0E739224D
:101E5000F7E785230B601360E2E780230B601360D4
:101E6000DEE700BF00400740014007403088FF1F09
:101E700008B003400CB0034008B00B400CB00B405E
:101E8000B8D4FF1F20B0034020B00B403188FF1FA3
:101E900024B0034024B00B40B5D4FF1F0C2830B44D
:101EA00017D91023984228BF18461C46104A114DD6
:101EB0001178181A8C42287018D00F4913700B78BB
:101EC00023B10E490E4A00230B60136030BCFFF7AC
:101ED00075BF0A2802D90C231C46E7E7082802D957
:101EE0000A231C46E2E708231C46DFE730BC7047A4
:101EF0003088FF1FB4D4FF1FB5D4FF1F24B00340A8
:101F000024B00B4028282FD8334B2DE9F0411E5C1C
:101F1000FF2E2BD0314B1B78002B2AD132062CD42C
:101F200072B62F4D2F4C2F46012326602B7062B6C0
:101F300072B623681B060CD43B781BB9F4E72B78E8
:101F4000002BF1D062B601F06FFE72B6236818065E
:101F5000F5D5254B1B6800222A7062B6234A1078FB
:101F600043FA00F0BDE8F081002070470020BDE892
:101F7000F081FFF781FE3206D2D572B61C4DDFF834
:101F80007C801C4C06F04007FFB206F03F06D8F8F4
:101F90000030DFB123F01003C8F8003001232660C1
:101FA000134A2B7062B672B6236819060CD41378E4
:101FB0001BB9ECE72B78002BE9D062B601F034FEB8
:101FC00072B623681B06F5D50B4BC3E743F010032D
:101FD000C8F80030E2E700BF54B40000B5D4FF1FDA
:101FE000B7D4FF1F00B0034010B00340B4D4FF1FAC
:101FF000B6D4FF1F00B00B4010B00B400CB00B402C
:102000000A4A0B49136843F4805313600B7843B1B9
:10201000084B80221A7080F30C00074B00B2188026
:102020007047044BC0221A70F5E700BF2C800440B3
:10203000B8D4FF1F21C00C4000C00C4008B5104CA4
:1020400008E0236859050DD423681A050FD42368C6
:10205000DB0411D423685803F3D500F035FB236863
:102060005905F1D502F0B6F823681A05EFD502F04C
:1020700047F92368DB04EDD502F0D8F9EAE700BFA1
:102080003480044008B5FFF7D9FF00BF014B102290
:102090001A80704700200540704700BF094908B505
:1020A0000B6830B16A461844A2F58052904202D2C1
:1020B0000860184608BD04F053FE0C2303604FF07F
:1020C000FF3008BD3488FF1F10B40F4B53F8302089
:1020D00092F880422CB1012369B182F8803010BCA3
:1020E000704703EBC0035B681A6841B922F0020233
:1020F0001A6010BC704782F8003110BC704742F083
:1021000003021A6010BC704780B400001C4A02EB46
:10211000C00301295B6811D004291BD052F830009C
:10212000002280F8802229B1022920D0032922D060
:102130001A6070474FF480721A60704752F830008E
:102140004FF4A27280F880121A601A6822F02002FE
:102150001A60704752F830104FF4A272012081F8D3
:1021600080021A601A6842F020021A60704740F23A
:1021700003121A6070474FF481721A60704700BFF3
:1021800080B4000030B4054B054D064C00221021F0
:102190001A602A602060196030BC704714D0034078
:1021A00004D0034000D00340282838B52ED00029A1
:1021B00004464FDD5F4B1B78012505FA03F28A4286
:1021C00002D8212837D938BD0338C2B2012A3AD9FA
:1021D000202C4AD0192C48D0574A126802FB011211
:1021E00022FA03F31D2800F29B80DFE800F0928BB7
:1021F000847D9999766F99999999999999999968FE
:10220000615A53994C99999999999945494B1B78D9
:102210000B2B08D90C2B1CBF0C3B19410846BDE801
:102220003840FFF7EDBEC3F10C0399400846BDE806
:102230003840FFF7E5BE2946FFF746FF2946BDE8CF
:102240003840FFF763BF3D4A126802FB011222FAD1
:1022500003F3C7E72128B6D80021FFF735FF204652
:102260000121BDE83840FFF751BF354A126802FB33
:10227000011222FA03F3B5E73249334A0B604FF4F7
:102280005173136038BD3149314A0B604FF45173BB
:10229000136038BD2F49304A0B6040F2444313604D
:1022A00038BD2E492E4A0B6040F24443136038BDBE
:1022B0002C492D4A0B6040F24443136038BD2B4932
:1022C0002B4A0B6040F24443136038BD29492A4A27
:1022D0000B6040F24443136038BD2849284A0B6024
:1022E00040F24443136038BD2649274A0B6040F250
:1022F0004443136038BD2549254A0B6040F24443EE
:10230000136038BD2349244A0B604FF451731360A6
:1023100038BD2249224A0B604FF45173136038BD17
:10232000212C3FF650AF7F29D4BF00210121204648
:1023300093E700BF3888FF1F0880034008900340E0
:1023400008800B4010800B4048A0044018800B40D0
:102350004CA004401880034008B0044010800340A3
:1023600004B004404080034018C00440388003405B
:1023700014C004402880034010B004402080034073
:102380000CB004403080034010C00440488003403B
:102390001CC0044018900340349004401090034047
:1023A0003090044038B1102828BF1020044AC3B22E
:1023B000107813707047024A012310781370704729
:1023C0003888FF1F212801D8FFF77EBE704700BF65
:1023D000212801D8FFF79ABE704700BF2DE9F843C6
:1023E000054672B6204F214B214A1B683C68126893
:1023F00062B6520102D5322B88BF013495B3C3F5C2
:10240000BB331C4EDFF86490DFF86480FF334FF479
:102410007A72A6FB031302FB04F404EB931472B666
:10242000D9F800103A68D8F800E062B6C1F5BB33BD
:10243000FF33A6FB03031EF0806FC4EB93134FF42E
:102440007A7002D0322988BF013200FB0233B3F523
:102450007A7F04D3013D05D004F57A74DFE701F0FB
:10246000E3FBDCE7BDE8F883BCD4FF1F18E000E025
:1024700004ED00E0ABAAAAAAF8B52D4B2D49DFF870
:10248000D0E0DFF8D0C02C4E2C4D2D4C2D4A2E4FD5
:102490004FF4000018604FF0807018604FF000702B
:1024A00018604FF0806018604FF0006018600020E6
:1024B000086028234BF6FF71CCF80010CEF80030EE
:1024C000336013602B6023603B60B3629362092228
:1024D00045F8242CC4F8D80F05F57F65C7F8D41F3C
:1024E00007F5FF2707F5FA67C6F8F83F2B6006F5F2
:1024F000FF26C4F8D42F05F5FD2504F5FF24386028
:1025000006F2F4761148316005F5FF6504F5FD64C7
:102510002B6023600260FFF751FC3220FFF75EFF63
:1025200000F0FEFC4FF4AF70BDE8F840FFF756BF77
:1025300008E100E00480034014800340248003404D
:102540002C8003401C8003403480034000800B40FB
:102550000C80034008800340431E032B14D872B63E
:102560000A4951F8230068B170B4094C058834F861
:102570001320466841F82360521B24F8132062B6EA
:1025800070BC704762B670470020704718D5FF1FB7
:102590009CD7FF1F013803280BD872B6074B53F89E
:1025A000203043B100205B680130002BFBD162B6C4
:1025B0007047002070471846F9E700BF6CD5FF1F31
:1025C000F0B472B61A491B4E012311F8014B194F92
:1025D0009A00240742F0010505D556F8324064B14F
:1025E00056F83520BAB10133052BEED162B6124B45
:1025F00000221A70F0BC00F00FBD0F4C0F4D217877
:1026000047F8325007EB431308304A1E58602270D7
:1026100062B6F0BC70470849094B0A7847F8353074
:1026200007EBC5030830013A58600A7062B6F0E75C
:10263000CCB500000080FF1F95D5FF1F880040002B
:10264000C8004000431E032B1DD81B4A400140F028
:10265000100030B4104472B6184CE25C032A1BD848
:10266000DFE802F00212151703220D88E25410F081
:10267000080F14BFC823882343EA054308310360C9
:10268000416062B630BC704708300222EDE7052297
:10269000EBE708300422E8E7094A52F8230038B192
:1026A000084A52F82300416042F8231062B6E9E775
:1026B00042F82310034AF7E70080FF1FA4D5FF1F4D
:1026C0006CD5FF1F7CD5FF1F2DE9F04FDFF804A369
:1026D000DFF804B387B044E0A94F4FEA930807EB53
:1026E000C809013ED9F8042003F00803F6B2A2F1AC
:1026F000080003F0FF04002B40F0FE8057F838304C
:102700001B0C99B222F8081C002B00F0EC809D4BAA
:1027100022F8064C42F8044C53F82620002A00F018
:102720002B82994D55F826305860984C45F8260074
:1027300034F81630194424F8161000F04DFC002827
:1027400000F01382924A934B19F0080F00F1080031
:1027500018BF1346C9F8040047F8383008238AF830
:1027600000309AF80040E4B260071AD58A4B1B7813
:10277000A3B18A490A7802F0FF0322B1013BDBB220
:102780000B7003B900BE86490A7802F0FF032AB134
:10279000013BDBB20B70002B00F0BD8104238AF8F3
:1027A000003004F0080303F0FF02002B00F0C880A3
:1027B0009BF80030DBB21E098ED19C08704F57F891
:1027C000342007EBC401C2F38302013A49680C2AA2
:1027D00000F28580DFE802F0797983838383838345
:1027E00042838383070008686E4B6F4D0193684BEB
:1027F0004A686E4E47F8343081B240F28164694BCA
:102800006A60286000220120A1421A603A61BA6120
:10281000307000F2E380B1F5D06F80F02782B1F51F
:10282000817F00F0E08100F2C381802900F03682D0
:10283000822940F0DE81A9885D4B01F07F010429E7
:1028400000F2D8815B4C89000B44227062701A78C8
:10285000930740F122832070022023E2514B019321
:102860001A683AB3544B514E5449188834780D784D
:102870004028864645F0020828BF4FF0400E002C45
:1028800084F001043470CEEB00000CBF8824C8240F
:1028900007EBC80680B285F0010544EA0E44726079
:1028A000188047F8384072440D70002800F0B78057
:1028B000019B1A603C4B1A88B2F5A06F0FD1002122
:1028C0009A7859703E4B1A7009E0374A108842F2E4
:1028D0002102904200F0A8802D4A47F83420394A5E
:1028E000012313703AE72A4A2A4B19F0080F18BF40
:1028F000134647F8383031E700F08EFB324A33494F
:1029000052F82630002B00F03B8158688C5D42F86D
:10291000260003F10802C9F80420032C05D8DFE8DB
:1029200004F02C02292602228A551A8819F0080F71
:102930000CBF8823C82343EA024347F838300DE729
:10294000E00700F1EB80210600F12881A20706D5FF
:102950001F4A204913780220DBB213700870E30687
:1029600002D51C4B10221A7007B0BDE8F08F04226C
:102970008A55DAE705228A55D7E703228A55D4E734
:102980000080FF1F18D5FF1FC4D4FF1F9CD7FF1F57
:10299000C800400088004000A0D5FF1F29D5FF1FB8
:1029A000A8D5FF1FC0D4FF1F8CD5FF1F28D5FF1F40
:1029B000C020074098D5FF1FD4D4FF1F94D5FF1F18
:1029C00098200740942007406CD5FF1FA4D5FF1F17
:1029D00088200740802007409020074042F22104D1
:1029E000A14200F0948043D8B1F5086F00F0A881AF
:1029F000B1F5106F40F0FD80B84AB94CA97811705C
:102A000004F1800503E00834AC4200F09E81236AA3
:102A10001906F8D5606A083800F0FEFAF3E7BEF14F
:102A2000400F18BF002243E7AE4ACD1D11F8013B0D
:102A300002F8013FA942F9D1AB4A1268862A00F098
:102A40001181AA49AA4E0A78307882F0010500283F
:102A500042F002020D700CBF8821C82147F83210E5
:102A600007EBC20280F0010000213070516033E7B3
:102A700042F22124A14240F0FE81DFF8BCC29D4B0E
:102A80009D49AC78DCF800501D6081460C70002038
:102A9000029080468446044694490D7845F0020E23
:102AA00007EBCE03B9F1000F5C600CBF8824C8248B
:102AB00044EA080385F0010447F83E3032700C7098
:102AC000DFF81CE28A4BDFF82482002840F098806F
:102AD000BCF1400F1BD144F0020407EBC403029F7A
:102AE000DFF8FCE15F60002A40F09F80020442F0C2
:102AF000880207444EF8342086F800900D703B465B
:102B0000402804D100207D4A019910800B607C4A46
:102B100001231370E3E600F0EBFB3FE6704B7848CF
:102B200072491A614FF0020E80F800E0754F0A708A
:102B3000754919609960754E754D764C9A610D21F5
:102B40003970FF213170DFF8F4E129702270724D85
:102B5000724A8EF800109F27012406F8047C5D60FD
:102B60000470DA6007B0BDE8F08F6D4A47F83800AE
:102B7000137801331370F1E543F82600694DD4E56D
:102B80008B5D032B67D801A252F823F05D2700006C
:102B90005D270000E12B0000DB2B000059495C4B56
:102BA00080220D2008701A70A2077FF5D8AECFE6FC
:102BB00040F20232914240F05681A98801F07F0133
:102BC000042916D86A88A2B94E4C89000C44814663
:102BD000217841F00201217059E701238B55BDE5B1
:102BE00000238B55BAE5A98801F07F01042940F242
:102BF0004781444B0F221A70414A012313706EE63D
:102C000040287FF668AF44F002040EEBC401029E38
:102C10004E60AAB1444A83F800903346403888F8A1
:102C2000005040334EF834206DE70204029B86F8D2
:102C3000009042F0C8020D7003444EF834205FE764
:102C400083F80090029B304A88F8005040384033A7
:102C50004EF8342057E719F0080F0CBF0223032366
:102C60008B557BE5314A0F211170EAE6304A5468F2
:102C7000002CBED06888B5F804E003E00C3254683C
:102C8000002CB6D013888342F8D153887345F5D110
:102C9000000A03280CBF2078108903E0254C02208D
:102CA00022706270EA88824280F00C810F490D78B0
:102CB000402A45F0020E944607EBCE0028BF4FF0A5
:102CC000400C04EB0C0344600293CCEB02004FEA8F
:102CD0000C484FF001090022C824E9E6A0D5FF1FE7
:102CE0000080FF1FA3D7FF1FA4D7FF1F94D5FF1F8E
:102CF00028D5FF1FACD7FF1FB8D5FF1FD4D4FF1FA7
:102D000094200740C02007408800400088200740EA
:102D10008020074098200740D8D4FF1F2CD5FF1FE4
:102D200095D5FF1FC4D4FF1FC800400029D5FF1F41
:102D3000D0B5000098D5FF1FBCD4FF1F8C200740E2
:102D4000684A694C12782270ACE76849684B694A56
:102D500002916949694C6A4D039405964FF0000948
:102D600088461C4616460495206828B1456800F040
:102D700053F92846002DF9D100232360049B3068C5
:102D80001A46002342F8293028B1456800F044F97A
:102D90002846002DF9D100223260029A98F80030BE
:102DA0001146002241F8042B039A0291023B4FF096
:102DB000000122F81910032B07D8DFE803F03402D2
:102DC00034024FF0010388F8003009F10109B9F12C
:102DD000040F04F1040406F1040608F10108C3D14C
:102DE000484B059EDFF83091DFF8308100211970E3
:102DF000012518F8013B09F8043B1A0718D4AC0068
:102E000044F0020244F00304002347F8323047F84C
:102E100034303D4B994505F10105EAD196F8009013
:102E200089F0010233E64FF0000388F80030CCE768
:102E300000F0D2F8AC0007EB451300F108020028BF
:102E400037D05A60314B47F8343000F0C5F844F0C1
:102E5000010307EBC30200F1080100B351602C4AE3
:102E600047F83320CCE7B1F5A06F7FF4C2AE002263
:102E70004FF001090BE642F221329142F7D0B8E659
:102E80006A88002A7FF4B5AE224C89000C44814642
:102E9000217821F002012170F9E5022002E7194BA7
:102EA00044F001021B7847F83200164A01331370D0
:102EB000A6E7144B134A1B78AC00013347F83400E3
:102EC0001370C2E74028844628BF4FF0400C04EB43
:102ED0000C03CCEB00004FEA0C48029300224FF0A9
:102EE0000109D9E5A0D5FF1F98D5FF1F7CD5FF1F8D
:102EF00018D5FF1F6CD5FF1FA4D5FF1F9CD7FF1F40
:102F0000C4D4FF1F95D5FF1FD42007408800400080
:102F1000C8004000C0200740C4200740CCB50000D6
:102F20002DE9F843204C01F0EDFA002204F188006D
:102F300023461A605A60083383424FF00001F8D1EB
:102F40001A4A1B4F13681B4D1B481C4EDFF8788034
:102F5000DFF878C0DFF87890DFF878E043F480237A
:102F60001360C4F307233B70C4F307432B70240E94
:102F7000FF2302F528320470114D88F80030114803
:102F80008CF80030D4323370012389F80030702679
:102F90008EF800104FF40074102107F8183C2E70C2
:102FA00004601170BDE8F8830080FF1F3480044086
:102FB0009C200740B0200740B42007401020074065
:102FC00049E400E008E100E0802007408820074055
:102FD000942007400021074072B60D480268B2FAFB
:102FE00082F30B2B10DC4FF00041D94022EA0102A2
:102FF000026062B6074803EBC303DB00C21800217E
:10300000C15010465160704762B60020704700BF43
:103010003C88FF1FBC83FF1F0D4B0E4AC31AA2FB47
:1030200003231B090B2B0CD80B4A127852B972B62A
:103030000A484FF00041026821FA03F31A43026084
:1030400062B67047064A1278002AF0D0FFF7B8BA85
:10305000BC83FF1F398EE33895D5FF1F3C88FF1FC7
:10306000A0D5FF1F38B50F4D286878B14388028876
:10307000C118013393420C7A02D24380204638BDF6
:10308000FFF7CAFF002320462B6038BD064B1B7894
:103090002BB10320FFF760FA28600028E6D14FF03B
:1030A000FF3038BDB4D5FF1FA0D5FF1F10B5094CA8
:1030B000206818B143881844007A10BD064B1B786D
:1030C0002BB10320FFF748FA20600028F2D14FF01F
:1030D000FF3010BDB4D5FF1FA0D5FF1F044B054A1C
:1030E0001B6890881BB11A885B88D31A18447047F4
:1030F000B4D5FF1F9CD7FF1F0B4B1B789BB110B59E
:103100000A4C206848B1FFF787FF002303202360A3
:10311000FFF722FA30B1FFF77FFF0320FFF71CFA19
:103120000028F8D110BD7047A0D5FF1FB4D5FF1FF0
:103130002DE9F04FDFF8F89083B0012289F80020E4
:10314000019169B3DFF8EC80364F019E8346D8F8D1
:103150000000B0B3344D4488C4F14001B14228BFEF
:10316000314604EB010E00221FFA8EFE2A70761AF9
:10317000A0F802E000F1080251B1013C2244594498
:103180001BF8014B02F8014F8B45F9D1B0F802E072
:10319000BEF13F0F0BD8254A05211170002ED6D164
:1031A0000198002389F8003003B0BDE8F08F402279
:1031B000028001460420FFF745FA0022C8F80020EB
:1031C000E9E73A782AB3184D4AF2F9244FF0010A98
:1031D00007E0013C16D02A78A2B900F025FD3A7824
:1031E000BAB10420FFF7D6F90728F2D889F800A071
:1031F000FFF7F2FEC8F800000028ACD10C4B013CF0
:103200001870E8D101234FF0FF302B7003B0BDE8F8
:10321000F08F00234FF0FF3089F8003003B0BDE895
:10322000F08F00BFA0D5FF1FB0D5FF1FA8D5FF1F8F
:10323000A9D5FF1FACD5FF1F00B583B002AB01219C
:1032400003F8010D1846FFF773FF03B05DF804FBA8
:1032500038B50E4D0E4C28680123237028B14088E4
:1032600000232370C0F1400038BD0A4B1B7813B90E
:103270000020207038BD0420FFF78CF90728F7D80C
:10328000FFF7AAFE28600028E9D1F1E7ACD5FF1FBF
:10329000A9D5FF1FA0D5FF1FF8B5114B1B788BB127
:1032A000104E114D346801272F7064B10F4A6388A6
:1032B00000271770214623800420FFF7C3F93760E9
:1032C00000232B70F8BDFFF787FE084B28B101469D
:1032D00004201C70FFF7B6F9F2E71F70F0E700BF9B
:1032E000A0D5FF1FACD5FF1FA9D5FF1FA8D5FF1F75
:1032F00038B50E4B1B7873B90D4C216861B103F0E2
:10330000FF054B880B800420FFF79CF9256038BD32
:10331000084B01221A7038BDFFF75EFE0028F7D077
:103320000146BDE838400420FFF78CB9A9D5FF1F3E
:10333000ACD5FF1FA8D5FF1F10B4EFF3108272B6F3
:10334000437F33B9017F012907D003290FD001231F
:10335000437702B962B610BC7047124C2168A1B124
:10336000114943610B68836108605861EFE70F4CB6
:10337000216881B10E4943610B688361086058611F
:103380000C4B4FF080511960E1E7074B41618161BF
:1033900020601860DBE7064B4161816120601860A6
:1033A000EEE700BFCCD5FF1FC8D5FF1FBCD5FF1F60
:1033B000C0D5FF1F04ED00E070B5EFF3108272B6C8
:1033C0000C4C206880B10C4E00254369236073B11A
:1033D0009D6102B962B6457783689847EFF3108222
:1033E00072B620680028F0D102B962B670BD3360B1
:1033F000EFE700BFBCD5FF1FC0D5FF1FFFF7DCBF45
:10340000184A30B41468002C27D0036821688B4216
:103410000ED2CB1A00218460C1602360E06010608E
:103420000223037530BC704711688B42144608D3E1
:10343000A2685B1A0360002AF6D18260C460A060B3
:10344000EEE7D268C2608460E060C568CB1A0222F1
:10345000A8602360027530BC70478460C46010604F
:10346000DEE700BFC4D5FF1FF8B5224E34682CB389
:103470002368002B3AD1204F1D4604E03468ECB19C
:103480002368002B32D1A36803B1DD60206933606B
:10349000036825751B68BB4221D1037F4560022B61
:1034A000C46020D0FFF748FF6368002BE6D023609C
:1034B0002046FFF7A5FF3468002CE1D1EFF310831D
:1034C00072B60E4A00211068116003B962B628B1C5
:1034D0008468FFF795FF20460028F9D1F8BD224601
:1034E00000219847E0E783689847DDE7013B2360C8
:1034F000E4E700BFC4D5FF1FB11A0000D4D5FF1FF9
:10350000024A136801331360FFF7AEBFBCD4FF1F3C
:1035100008B5FDF709FBFDF717FC00F085FBFAE79E
:1035200003F08ABC2DE9F0438C688BB0ECB1002528
:10353000064689462F462B46212201A9484600F01F
:10354000CDFA3268202C234628BF2023D2F80480ED
:1035500001A91A4630461D44E41AC0470744002C0E
:10356000E9D138460BB0BDE8F0832746F9E700BF44
:1035700000B5064A036812885B6883B001A9ADF8FC
:1035800004200222984703B05DF804FB90B50000C8
:10359000F0B507468BB0002A33D0012A08BF0A22B3
:1035A00051B3212400E0F4B2B1FBF2F502FB151196
:1035B000C8B2092900F1300198BFC8B20AA988BF72
:1035C0003730214488BFC0B201F8240C661E29465A
:1035D000002DE8D133B1013CE4B20AAB23442D22E3
:1035E00003F8242C3B6801AA11195B683846C4F122
:1035F000220298470BB0F0BD30228DF825202124FF
:10360000E8E70368C9B21B6898470BB0F0BD00BF7C
:103610002DE9F04385B080461946104616461F46F0
:103620009DF8305002F0C6FF002840F0B18027F02E
:103630000044304621464FF0FF32594B02F0BAFFAA
:1036400098B9304621464FF0FF32554B02F094FFB7
:1036500058B9D8F8003053495B6840460322984770
:103660008146484605B0BDE8F083304639464FF004
:1036700060424D4B02F094FF002870D1304639462D
:103680004FF06042494B02F06DFF002867D1304691
:1036900039460022002302F065FF002863D18146ED
:1036A000002D65D0424B00240022104619463AA353
:1036B000D3E9002302F0E4FC01340B46E1B28D4271
:1036C0000246F2D83046394602F028FB0F4606463D
:1036D00002F086FF044602F05DFC02460B463046CF
:1036E000394602F019FB4B4606460F460A22214690
:1036F0004046FFF74DFF0F2D28BF0F2501352E2324
:103700008146EDB28DF8003001240022294B30466D
:10371000394602F0B5FC0F46064602F061FF04ABE5
:103720002344C0B200F1300203F8102C02F042FC36
:1037300002460B463046394602F0EEFA0134E4B256
:10374000AC4206460F46E0D1D8F8003022465B680E
:10375000404669469847484605B0BDE8F083D8F82A
:103760000030154978E707F100474FF0010997E766
:1037700000220F4B3046394602F0D0FA02F030FFFB
:103780004B4601460A224046FFF702FF814668E7A2
:10379000D8F8003009495FE7000000A09999B93FC7
:1037A000FFFFEF7F9CB50000FFFFEF41FFFFEFC180
:1037B0000000E03F0000244098B5000094B50000F0
:1037C00070B50E4D82B02B680093009E044608E051
:1037D00000F02AFA2B680193019BA2689B1B93427D
:1037E00007D2236820465B6998470028F0DB02B0C7
:1037F00070BD4FF0FF3002B070BD00BFBCD4FF1FE2
:1038000081607047F8B50F4616460021054600F066
:103810006BF88EB1002404E00ED000F005F9A6424A
:103820000AD03846FFF7CCFF011E04F10104C9B2EB
:103830002846F1DA01233B732846F8BDFFF75CBC4C
:10384000FFF734BCFFF70EBCFFF748BCFFF724BD01
:10385000FFF7FEBC08461146FFF76ABC0846FFF7B3
:10386000EBBC00BF704700BF10B50446006803F012
:10387000EBFA204610BD00BF38B543688B4201D338
:10388000012038BD0D4604460131006803F068FE92
:103890000028F6D0A36884E82100002BF0D1037043
:1038A000EEE700BFF8B50446154632B9036803B128
:1038B0001A700023A3602046F8BD0E461146FFF79C
:1038C000DBFF074648B9206810B103F0BDFA276056
:1038D00000236360A3602046F8BDA56031462068E0
:1038E00004F0B0F8E7E700BF38B5002304460360F2
:1038F00043608360037341B108460D4604F000F94C
:10390000294602462046FFF7CDFF204638BD00BFBE
:103910000023884210B5044603604360836003734C
:1039200003D08A680968FFF7BDFF204610BD00BFBD
:1039300038B5054608460C4604F0E2F82146024632
:103940002846BDE83840FFF7ADBF00BF10B50446BC
:10395000002386B023606360A3602373084601A937
:1039600003F04EFA01A92046FFF7E2FF204606B019
:1039700010BD00BF10B5044600238AB0084623607E
:103980006360A3602373911C6B4600F05BFA30B157
:1039900001462046FFF7CCFF20460AB010BDA060CC
:1039A00020460AB010BD00BF814203D08A68096872
:1039B000FFF778BF704700BF2DE9F84303680F4653
:1039C000BB420446816815460AD85A18974207D266
:1039D000C3EB07094FF0010835B92046BDE8F8836D
:1039E0004FF00008002DF8D04E1931462046FFF761
:1039F00043FF0028F1D0B8F1000F0ED02368A06873
:103A00002A4603EB0901184400F05CF92368002200
:103A10009A55A6602046BDE8F8832068A368394619
:103A2000184404F00FF8F4E710B582B000238DF8C5
:103A30000410012201A904468DF80530FFF7BCFFF0
:103A4000204602B010BD00BF10B58A680968044660
:103A5000FFF7B2FF204610BD38B5054641B1084614
:103A60000C4604F04DF8214602462846FFF7A4FF15
:103A7000284638BD10B582B000238DF8041001220D
:103A800001A904468DF80530FFF796FF204602B0E5
:103A900010BD00BF10B583688C681B1B93420CD30C
:103AA000036873B1096851B110461844224604F006
:103AB00095F8B0FA80F0400910BD002010BD08460E
:103AC00010BD184610BD00BF82688B689A4202D3B1
:103AD0000022FFF7DFBF0020704700BFB2B1A9B1DD
:103AE00038B584689C420ED9E41A013A0D469442D6
:103AF000016828BF144619442246284604F0BEF83F
:103B000000232B5538BD00230B7038BD704700BF14
:103B100083683BB110B50468204603F02BFF20B149
:103B2000001B10BD4FF0FF3070474FF0FF3010BD4D
:103B30009A42F8B504460E4602D911461A460B467B
:103B40000021A1602173B0682160824261600ED8BB
:103B5000834228BF03461D4633685F5D595533686D
:103B6000991806D02046FFF7E3FE33685F552046DC
:103B7000F8BDA1605F55FAE738B583688B4204460B
:103B800014D99AB1084611448B4238BF1A1A2568D5
:103B9000A3EB020238BF1946A2602944121A284436
:103BA00003F028FC2268A3680021D154204638BDC8
:103BB0002DE9F04106680746EEB18468DCB1354670
:103BC00000E04546287805F1010803F0F7F80028E1
:103BD000F7D1013C344402E0A54205D8013C2078ED
:103BE00003F0ECF80028F7D1621C521BB542BA6012
:103BF00004D80023B3543846BDE8F0813046294646
:103C000000F060F83E68BA68F3E700BF006808B1EA
:103C100003F08CB8704700BF006810B1002104F0B9
:103C2000C9BF0020704700BF38B5224C237803B1CC
:103C300038BD01232370FFF751FA70BB00F0BAFAC8
:103C400040BB00F04DFB10BB00F0E0FBE0B90023EF
:103C50002370EFF30583002BEAD1EFF3108172B6E6
:103C6000154B1868E0B1154C2278CAB945691D603A
:103C700001232370C5B1AA6101B962B60025457759
:103C8000836898472570D3E700F082FCDFE700F0F7
:103C90007DFCD9E700F078FCD3E7FFF7E3FDCDE743
:103CA0000029C5D162B638BD054B1D600029E5D19C
:103CB000E3E700BFD8D5FF1FCCD5FF1FD0D5FF1F2E
:103CC000C8D5FF1F844641EA000313F003036DD1FA
:103CD000403A41D351F8043B40F8043B51F8043BCF
:103CE00040F8043B51F8043B40F8043B51F8043BD6
:103CF00040F8043B51F8043B40F8043B51F8043BC6
:103D000040F8043B51F8043B40F8043B51F8043BB5
:103D100040F8043B51F8043B40F8043B51F8043BA5
:103D200040F8043B51F8043B40F8043B51F8043B95
:103D300040F8043B51F8043B40F8043B51F8043B85
:103D400040F8043B51F8043B40F8043B51F8043B75
:103D500040F8043B403ABDD2303211D351F8043B15
:103D600040F8043B51F8043B40F8043B51F8043B55
:103D700040F8043B51F8043B40F8043B103AEDD2C4
:103D80000C3205D351F8043B40F8043B043AF9D215
:103D9000043208D0D2071CBF11F8013B00F8013BE8
:103DA00001D30B8803806046704700BF082A13D3F5
:103DB0008B078DD010F003038AD0C3F10403D21A0D
:103DC000DB071CBF11F8013B00F8013B80D331F841
:103DD000023B20F8023B7BE7043AD9D3013A11F8C1
:103DE000013B00F8013BF9D20B7803704B7843702C
:103DF0008B78837060467047F0B44D1E2E460024C9
:103E000000E00134B0FBF2F302FB1300092800F1DB
:103E100030078ABF3730F8B2C0B206F8010F184633
:103E2000002BEED10A1953704CB1107815F8016FC0
:103E300028700133E01A834202F80169F5DB084675
:103E4000F0BC70472DE9F04F0D4685B085EAE57965
:103E50000146824617461C46A9EBE57902F004FFAD
:103E6000002840F02F812AF000484046C74902F060
:103E7000FBFE002847D14046C44902F0D7FE064663
:103E8000002840D10021504602F0C6FE002814BF91
:103E90000420032048451DDB002DC0F274815046EC
:103EA000002102F0B9FE254648BB49214E22462397
:103EB00021706270A3700334002E00F07681A01987
:103EC000202304F8013BA042FBD10023037005B07E
:103ED000BDE8F08F002DC0EB0906E0DA002E00F0FF
:103EE0005281A519202304F8013BAC42FBD1504676
:103EF000002102F091FE002800F0228100262D23EF
:103F00002B706C1CD1E702AB01AA3946504602F077
:103F100017FFBB468046DDF80490002F57D0C9F14B
:103F20000003BB4200F39480404603F0E9FD0646DF
:103F3000B145B8BF0136B9F1000F40F098800136A5
:103F4000DDF808E0BEF1000F53D00136A81B0028B1
:103F500004EB060153DC23462D221A700133B9F11C
:103F6000000F63D137B11A46302002F8020B2E2021
:103F7000587013468B4220D25F1C98F800201A70AC
:103F80008F4208F1010819D0019A4FF02E0E0BE074
:103F900083F801E002338B4203F101070DD218F8D8
:103FA000010B18708F4209D0013A0192002AEFD01C
:103FB0003B468B4203F10107F1D31946002DC0F2B5
:103FC000A980002320460B7005B0BDE8F08FB9F141
:103FD000000FA4D190F800806D496E4A012301932F
:103FE0009946B8F1340F8CBF884690464FF0FF33A6
:103FF00097E7A81B002804EB060140F3D880014492
:10400000224601384FF0200C02F801CBC2F1010327
:1040100003442344002BF7DC20EAE07301332344FC
:10402000BEF1000F98D1B9F1000F9BD0A2DA002F9A
:10403000A0D01A46302002F8020B2E275F70C9EB81
:10404000020302F8010B9342FBD10022019291E797
:10405000C7F100090126B1453046B8BF0136B9F1B4
:10406000000FDFF83081CDF804903FF468AFBFF661
:1040700067AF002F3FF464AF09EB0703984207F1E5
:1040800002067FF65DAF002F07DD5046424902F081
:1040900025FCBBF1010B8246F7D102AB03AA5946BE
:1040A000504602F04DFEDDF80490039A7B1CC9EBEC
:1040B00002029A4208BF09F10109804608BFCDF803
:1040C00004903DE70021504602F0A6FD002814BFF1
:1040D0000420032048453BDA002DC0EB09063BDBFA
:1040E0004FF07E535046002163F31E0002F094FD12
:1040F0002546002841D14E2341222370A3706270CF
:104100000334002E51D0A019202304F8013B84422F
:10411000FBD1DAE6A8194342002B6FEA00007FF7D3
:1041200050AF0A46202502F8015BC2F101030344A7
:104130000B44002BF7DC20EAE0730133194440E71D
:1041400049214E22462329706A70AB70E81CBCE6F8
:10415000002D16DB0026C3E79EB1A519202304F825
:10416000013BAC42FBD14FF07E535046002163F33C
:104170001E0002F051FD88B100262D232B706C1C0F
:10418000B9E72546EFE72546B1E600BFFFFF7F7F91
:10419000C8B5000028B60000000020414E2341228F
:1041A0002B70AB706A70E81C8FE620468DE62346C4
:1041B000D5E600BF054A064B10781B78C0B2DBB2CB
:1041C000984238BF4030C01A704700BFE0D5FF1F8B
:1041D000E1D5FF1FF0B4384B1A7912F0300F2CD014
:1041E00072B6997D01F0FF0200293DD062B6334FCF
:1041F000334938780D78334E1C46C0B2EDB2431CBB
:10420000402BE17928BF0023AB4202F1FF32C9B253
:104210001CBFF154184612F0FF02F0D12A4B1B6864
:10422000C2B23A704BB1A84236BFC5F14005401B3F
:1042300040192728C4BF01221A701F49CA78D2B278
:10424000150616D452060DD51B4B1B795B0609D5F6
:104250001E4B1F491B6800220A7003B11A70164BCF
:104260003C22DA70F0BC70474022D9795A7462B6A9
:10427000E3E70B791C06E5D5164B174E1C7833780F
:10428000E4B2DBB29C420ED0144D01E0A3420AD04E
:104290000133402B28BF00230879E85CC0B2C87105
:1042A000087D0728F2D9DBB2034933700B79180671
:1042B00044BF7C23CB70C5E700A00640E0D5FF1FBC
:1042C000E1D5FF1F24D6FF1FDCD5FF1F68D6FF1FD7
:1042D00064D6FF1F6CD6FF1F65D6FF1FE4D5FF1FF6
:1042E000054A064B10781B78C0B2DBB2984238BF43
:1042F0004030C01A704700BFE0D6FF1F75D6FF1FC1
:10430000F0B4384B1A7912F0300F2CD072B6997D78
:1043100001F0FF0200293DD062B6334F33493878AF
:104320000D78334E1C46C0B2EDB2431C402BE179F0
:1043300028BF0023AB4202F1FF32C9B21CBFF154C7
:10434000184612F0FF02F0D12A4B1B68C2B23A7035
:104350004BB1A84236BFC5F14005401B4019272884
:10436000C4BF01221A701F49CA78D2B2150616D4EA
:1043700052060DD51B4B1B795B0609D51E4B1F49F9
:104380001B6800220A7003B11A70164B3C22DA70C7
:10439000F0BC70474022D9795A7462B6E3E70B79D2
:1043A0001C06E5D5164B174E1C783378E4B2DBB209
:1043B0009C420ED0144D01E0A3420AD00133282BB9
:1043C00028BF00230879E85CC0B2C871087D0728BF
:1043D000F2D9DBB2034933700B79180644BF7C2352
:1043E000CB70C5E700B00640E0D6FF1F75D6FF1FB3
:1043F000A0D6FF1F70D6FF1FE4D6FF1F74D6FF1F85
:10440000E8D6FF1FE1D6FF1F78D6FF1F054A064BEF
:1044100010781B78C0B2DBB2984238BF4030C01A67
:10442000704700BFF0D6FF1FF1D6FF1F30B42B4BF3
:104430001A7994061FD52A48DA7903782949013375
:104440003F2B0978C8BF00238B42D2B203D0264C41
:10445000D9B2E2540170254A116861B1244A127838
:10446000D2B2934236BFC2F140029B1A9B18272B4F
:10447000C4BF01230B70194AD378DBB2180611D4DC
:104480005A060DD5154B1B795B0609D5194B1A49F0
:104490001B6800220A7003B11A70104B2C22DA70CC
:1044A00030BC704711790906EAD5144910480C78D8
:1044B0000178C9B28C420DD04A1C272A84BF002142
:1044C0000A460F4D054C98BFD1B2AA5CD2B2E27138
:1044D0000170D5E76C21D170D2E700BF00C0064063
:1044E000F0D6FF1FF1D6FF1F1CD7FF1FECD6FF1F12
:1044F0005DD7FF1F60D7FF1F5CD7FF1F64D7FF1F6B
:10450000F4D6FF1F70B584B072B6194B194D1A4816
:10451000702241260F2480211A702E701A460470D2
:10452000197013781B06FCD5144B186862B6144B2F
:10453000144C984298BF00EB800001A998BF40003E
:104540000A22FFF759FC01A92046002311F8012B8C
:1045500001333AB10A2B20F8022FF7D1162323702A
:1045600004B070BD5B00DBB2237004B070BD00BF4F
:10457000000002400700024006000240080002401E
:104580007F969800DC88FF1F704700BF704700BF10
:10459000704700BF2DE9F0438BB004460D4600F094
:1045A000F3F9374B93F90080B8F1FF3F06460F4609
:1045B0000ED022462B462046294601F0FBFF8146BD
:1045C00030B9002200232046294601F0D5FF20B94A
:1045D000304639460BB0BDE8F0832A4BCDF8209029
:1045E000CDE90245CDE90445019320462946B8F1BD
:1045F000000F17D1244D4FF0604400220023CDE975
:10460000064501F0A5FF002832D00223009368463A
:1046100001F06EF898B1089BB3B9DDE906010BB063
:10462000BDE8F083194D002400220023CDE90645A2
:1046300001F08EFF68B1022398450093E7D102F0A4
:104640008FFB22230360E6E702F08AFB089B0360EE
:10465000E3E70123B8F1020F00930BD102F080FBD6
:10466000212303600A4801F045F8CDE90601D2E7AD
:1046700001230093684601F03BF80028F2D1EDE7F2
:10468000F288FF1F24B60000FFFFEFC70000F0FF15
:10469000D8B300002DE9F04FDFF8E4928DB0064664
:1046A0000F4614461D4600F0FFF999F90080B8F155
:1046B000FF3FCDE9000146D022462B462046294641
:1046C00001F078FF834600283DD132463B46304614
:1046D000394601F06FFF002282460023002840F097
:1046E00084803046394601F033FF002830D0002264
:1046F00000232046294601F02BFF8346A8B1012262
:10470000984B029200210022CDF828A0CDE9046741
:10471000CDE90645CDE908120393B8F1000F53D057
:10472000914900200DB0BDE8F08F2046294600F0E9
:10473000D9FF40B1002200232046294601F012FF94
:10474000002840F0B780DDE900010DB0BDE8F08F32
:10475000DDE9000100F0C6FF804600285DD04FF083
:10476000000A4FF0000B52465B46DDE9000101F004
:10477000EFFE0028E7D03046394600F0B3FF0028AE
:10478000E1D02046294600F0ADFF0028DBD099F9A2
:104790000030744A039204210022022BCDE9046701
:1047A000CDE90645CDE908AB02910A9203D002A8F3
:1047B00000F09EFF70B902F0D3FA2223036009E0F3
:1047C00000230024CDE9083402A800F091FF00285E
:1047D00000F086800A9B1BB102F0C2FA0A9B0360BC
:1047E000DDE908010DB0BDE8F08F2046294601F053
:1047F000AFFE0028A7D05C495A4BCDF828B0012263
:104800000020B8F1020FCDE90467CDE90645029218
:104810000393CDE90801D7D197E73046394600F038
:1048200061FF00289BD02046294600F05BFF00284E
:1048300095D0DDE900231046194601F0BBFE0028A3
:1048400073D1032399F900800293464B0A90039396
:10485000CDE90467CDE906450022002330463946FC
:10486000B8F1000F41D1414F4FF06046CDE90867E4
:1048700001F078FE00289AD000223D4B20462946C0
:1048800001F0FEFB04460D4600F03AFF02460B46DF
:104890002046294601F05CFE002843D1354B99F9AA
:1048A00000804FF06042CDE90823B8F1020F7FF499
:1048B0007EAF80E799F900302A4ACDF828B001216F
:1048C000CDE90467CDE9064502910392002B3FF440
:1048D00077AF29490020022BCDE908017FF474AF9E
:1048E00002F03EFA2123036074E7244F0026CDE94D
:1048F000086701F037FE0028D7D000221C4B204665
:10490000294601F0BDFB04460D4600F0F9FE0246C3
:104910000B462046294601F01BFE18B9164B002213
:10492000CDE9082399F90080BFE799F900900D4B74
:10493000CDF828800122CDE90467CDE90645029231
:104940000393B9F1000F3FF43BAF00220023104660
:10495000194601F0BFFCB9F1020FCDE90801BFD043
:1049600032E700BF2CB600000000F03FFFFFEF472A
:104970000000E03FFFFFEFC70000F0FF0000F07F06
:10498000F288FF1FFFFFFFFFB1F5801F2DE9F843FD
:1049900004460D460B461ADA024621F00046324321
:1049A00059D000295FDB00223B4B01F069FB0B462D
:1049B0000D463A498B4204466FF035020CDD224623
:1049C0002B462046294601F0A9F9BDE8F883334972
:1049D0008B424FF00002F2DC1815A0F2FF301044B9
:1049E0004FEAD0794844C3F3130801F0E3FAC9F55C
:1049F0007F73033348EA035506460F46204629468F
:104A000000F08AFF1EA3D3E9002380468946304682
:104A1000394601F035FB1CA3D3E9002304460D46BB
:104A20004046494601F02CFB02460B4620462946EB
:104A300001F074F916A3D3E9002304460D4630466D
:104A4000394601F01DFB02460B462046294601F07F
:104A500065F9BDE8F883002200230020104901F029
:104A600039FCBDE8F88302460B4601F055F90022F7
:104A7000002301F02FFCBDE8F88300BFAFF30080F6
:104A8000362BF111F3FE593D0EE526157BCBDB3FAE
:104A900000609F501344D33F00005043FFFFEF7F5F
:104AA000000050C3FFFFFFFF2DE9F04F23F0004847
:104AB00058EA020993B03CD0714C21F00046A6425E
:104AC00083460D460CDD06F1404606F5801656EA93
:104AD0000B0038D16B498346584613B0BDE8F08FC0
:104AE0009A4696462BD0A045EDDC654CA04578D083
:104AF000002D0F468146CDE9002376DB0024BEF170
:104B0000000F27D15E4B984500F08B805D4B984598
:104B100052D0BAF1804F00F0C2835B4B9A4519D155
:104B2000002D17DB4846394613B0BDE8F04F00F0C2
:104B300015BDCB465349584613B0BDE8F08F002849
:104B4000C1D1B045D1DD514813B0BDE8F04F00F000
:104B5000D1BD00244846394600F0C0FDBBF1000F2E
:104B60001CD0ED0F013D54EA050370D0484B984529
:104B700040F3948003F10473984540F30584454B5A
:104B80009E4270DDBAF1000F70DD3BA3D3E9002334
:104B90001046194601F074FA83469DE726B1394B59
:104BA00025F040429A42DCD1BAF1000FC0F2B08346
:104BB000002D08DB83468FE7BAF1000FC0F2568460
:104BC000CB46394688E706F1404606F5801656EA98
:104BD000040300F07B84012CECD1834601F10041F9
:104BE0007AE7BEF1000F83D06DE72B4B98452CDCA4
:104BF000A3F15473984581DD4FEA2853A3F2FF33A4
:104C0000142B40F34B84C3F134032EFA03F202FA5F
:104C100003F39E457FF472AF02F00102C2F1020479
:104C20006DE706F1404303F5801353EA0B0300F0F0
:104C30003383184B9E4240F36083BAF1000F15DBBB
:104C4000DDE900349B46214646E7022457E74A4601
:104C500048463B46394601F05FF802460B4601F0F4
:104C600039FB834638E7BAF1000F8EDB4FF0000BBB
:104C7000594631E7AFF300809C7500883CE4377EED
:104C80000000F07F0000F03F0000E03FD8B30000DC
:104C90000000E041FFFFEF3FFFFF3F43B6F5801FFD
:104CA0004FF0000205DAD44B01F0EAF96FF034025C
:104CB0000E463315D14FC6F31306A3F2FF33134448
:104CC00046F07F5ABE421A460D934AF4401A40F30A
:104CD000C183CB4B9E4240F3FD83134601330D93BA
:104CE000C84B0022CDE9062300270026CDE908673E
:104CF000CDE90E67AAF5801A0027024653465146B1
:104D0000CDE90A23DDE9062301F006F8DDE90623F3
:104D100080468946DDE90A0101F000F802460B46AB
:104D20000020B84901F0D6FA0A460146CDE9101232
:104D3000134649460246404601F0A2F94FEA6A038B
:104D400043F000538C46834603F50023CDE904BCB1
:104D5000DA468B46D9190023CDE902AB0293DDE98F
:104D600002AB002006460F4602460B465046594607
:104D700001F086F902460B464046494600F0CCFF5A
:104D8000DDE90623804689463046394600F0C4FFF7
:104D900002460B46DDE90A0100F0BEFF52465B46C3
:104DA00001F06EF902460B464046494600F0B4FF5A
:104DB000DDE9102301F064F9DDE90467CDE90601BE
:104DC00032463B463046394601F05AF978A3D3E9DA
:104DD000002306460F4601F053F977A3D3E90023D9
:104DE00000F09CFF32463B4601F04AF974A3D3E938
:104DF000002300F093FF32463B4601F041F972A3D5
:104E0000D3E9002300F08AFF32463B4601F038F92F
:104E10006FA3D3E9002300F081FF32463B4601F047
:104E20002FF96DA3D3E9002300F078FF32468046C6
:104E300089463B463046394601F022F902460B4688
:104E40004046494601F01CF9524606460F465B466D
:104E5000DDE9040100F062FFDDE9062301F010F94D
:104E600032463B4600F05AFF5246804689465B4632
:104E70005046594601F004F90022634BCDE90A017E
:104E800000F04CFF42464B4600F048FF02980F46A8
:104E9000064632463B465046594601F0F1F800229C
:104EA00082468B46584B3046394600F035FFDDE9E7
:104EB0000A2300F031FF02460B464046494600F007
:104EC0002BFFDDE9042301F0DBF8324680468946FA
:104ED0003B46DDE9060101F0D3F802460B464046A9
:104EE000494600F01BFF8046894602460B46504665
:104EF0005946CDE904AB00F011FFDDE902AB38A360
:104F0000D3E9002350460F4601F0BAF8DDE9042347
:104F1000CDE902013946504600F0FEFE02460B463E
:104F20004046494600F0F8FE2FA3D3E9002301F0E4
:104F3000A7F82FA3D3E90023804689465046394677
:104F400001F09EF802460B464046494600F0E6FE58
:104F5000DDE90E2300F0E2FE80460D98894601F05F
:104F600029F8424606460F464B46DDE9020100F0AD
:104F7000D5FEDDE9082300F0D1FE32463B4600F0C5
:104F8000CDFE32463B4650468B4600F0C5FEDDE97D
:104F9000082300F0C1FEDDE9022300F0BDFE024659
:104FA0000B464046494600F0B7FE80462EE000BF63
:104FB000EF4E454A287ECA3F65DBC9934A86CD3FFE
:104FC00001411DA96074D13F4D268F515555D53FE4
:104FD000FFAB6FDBB66DDB3F033333333333E33F7C
:104FE000000000E009C7EE3FFD033ADC09C7EE3FD1
:104FF000F5015B14E02F3EBE000040438E98030095
:1050000079B60B000000F03F000008408946013CE3
:1050100054EA0503DDE9000114BFD54CD54C00234B
:10502000CDE9043403460C46CDE902340023029353
:10503000DDE9024522462B4600F06EFE52465B46F5
:1050400001F01EF8DDE9002306460F4640464946BA
:1050500001F016F802460B463046394600F05EFE77
:10506000224606460F462B4650465946CDE9006774
:1050700001F006F80B46024680468946304639461E
:1050800000F04CFEBC4B994206460D460C4640F3E0
:105090000E8101F13F4303F5E003034340F0EF814C
:1050A0009FA3D3E90023DDE9000100F037FE42466B
:1050B00082468B464B463046294600F02DFE02467E
:1050C0000B465046594601F06BFA002840F0D78154
:1050D0002F463B154FF48012A3F2FE3342FA03F33E
:1050E0002344C3F30A52A54EA2F2FF321641C3F382
:1050F000130B0020C2F1140523EA06014BF4801BB8
:1051000002460B46002C4BFA05FB40464946B8BF09
:10511000CBF1000B00F000FE02460B4680468946AC
:10512000DDE9000100F0FAFD4FEA0B5A00247EA3EE
:10513000D3E9002320460D4600F0A2FF4246064672
:105140000F464B462046294600F0E6FD02460B4638
:10515000DDE9000100F0E0FD75A3D3E9002300F0D4
:105160008FFF75A3D3E90023804689462046294650
:1051700000F086FF02460B464046494600F0CEFD51
:105180008046894602460B463046394600F0C6FD49
:1051900032463B4604460D4600F0BEFD02460B4635
:1051A0004046494600F0B8FD2246804689462B46D7
:1051B0002046294600F064FF61A3D3E90023064698
:1051C0000F4600F05DFF60A3D3E9002300F0A4FDCB
:1051D00032463B4600F054FF5DA3D3E9002300F0C4
:1051E0009DFD32463B4600F04BFF5BA3D3E9002315
:1051F00000F092FD32463B4600F042FF58A3D3E94F
:10520000002300F08BFD32463B4600F039FF02469A
:105210000B462046294600F07FFD06460F46024613
:105220000B462046294600F02BFF0022CDE9000165
:105230004FF080433046394600F06EFD02460B4683
:10524000DDE9000101F046F8424606460F464B46AE
:105250002046294600F014FF42464B4600F05EFD12
:1052600002460B463046394600F056FD22462B4694
:1052700000F052FD02460B4600203D4900F04CFD77
:105280008A44BAF5801FC0F236815146DDE9042315
:1052900000F0F6FE83461FE4F34635491CE44A4617
:1052A00048463B46394600F0EBFE834614E4344B57
:1052B00021F000479F4240F30081324B0B440343EF
:1052C0000CD142464B4600F027FD02460B46DDE975
:1052D000000101F051F900283FF4FBAE22A3D3E90D
:1052E0000023DDE9040100F0CBFE1FA3D3E9002376
:1052F00000F0C6FE8346FFF7EFBBBAF1000FBFF622
:10530000B5ACDDE900349B4604F10041FFF7E4BB96
:1053100002460B460020164900F0DCFF48E400BFBF
:10532000FE822B654715973C00000000432EE63FA8
:10533000EF39FAFE422EE63F396CA80C615C20BEC4
:10534000D0A4BE726937663EF16BD2C541BDBB3E8B
:105350002CDE25AF6A56113F93BDBE166CC1663F69
:105360003E5555555555C53F59F3F8C21F6EA50119
:105370000000F03F0000F0BFFFFF8F40FFFF0F0075
:10538000FFCB904000346F3F6F4B9E427FF76BAC7A
:105390006E4B9E423FF7F6AB00226C4B00F0BCFC1C
:1053A0005BA3D3E9002306460F4600F069FE5AA32B
:1053B000D3E90023804689463046394600F060FE36
:1053C000002282468B46624B3046394600F058FE3A
:1053D00002460B4652A1D1E9000100F09DFC324685
:1053E0003B4600F04DFE02460B460020594900F0B6
:1053F00093FC3246CDE902013B463046394600F087
:105400003FFE02460B46DDE9020100F039FE46A3ED
:10541000D3E9002300F034FE02460B4650465946BD
:1054200000F07AFC02460B4606460F4640464946C7
:1054300000F074FC42464B46002082468B4600F04A
:105440006BFC02460B463046394600F065FC804650
:105450008946DCE500220023CDE90823CDE90E23AF
:105460003A4B00220027CDE9062346E44A463B4654
:105470000020364900F02EFF8346FFF72DBB2CA3FA
:10548000D3E90023DDE9040100F0FAFD28A3D3E904
:10549000002300F0F5FD8346FFF71EBBBEF1000FB1
:1054A0007FF457ABC3F1140348FA03F202FA03F393
:1054B000984524D07446FFF729BB264B9F423FF7FF
:1054C00008AEDDE902349A469B462FE602460B46BB
:1054D000FFF7C1BB18A3D3E90023CDE9082318A324
:1054E000D3E90023CDE90E231B4B00224FF4802784
:1054F000CDE9062301E45A4600F08EF9C6E602F033
:105500000102C2F10204FFF701BB00BFAFF300804C
:10551000000000604715F73F44DF5DF80BAE543ED6
:10552000555555555555D53FFE822B654715F73FC7
:105530009C7500883CE4377E0000004003B8E23FE1
:1055400006D0CF43EBFD4C3EFEFFEF3F0000F03FA7
:105550000000D03F0000E03F0000F83F2DE9F84395
:105560005D4EB6460E4076450C46054600F09580E9
:1055700000290B46024673DD0F157ED0A7F2FF37D8
:10558000C3F31303F80743F4801364D403EBD2711D
:1055900000260B447F105200B64616204FF400112F
:1055A0000EEB01049C424FEAD2754FEA420203DC43
:1055B0001B1B04EB010E0E44013805EB43034FEABD
:1055C0005101EDD1844620244FF0004109E020D064
:1055D00003EBD275013C4FEA51012B444FEA4202E2
:1055E00020D09E4501EB0C05F1DA002D05EB010CF6
:1055F00009DBF0469542CEEB030300D9013B521B79
:105600000844C646E4E7BCF1000FF2DB0EF10108E6
:10561000F0E7954217D8002D05EB010C47DB9846C3
:105620000023ECE7134310D14008731003F17F53BC
:1056300003F50013F20703EB075948BF40F00040A1
:105640004946BDE8F8837346C2E7411C33D000F0F9
:1056500001031844E8E75B0003EBD273520095E7BF
:1056600021F000460643ECD069BB0F46D30A153F34
:105670005205002BFAD0DD0220D4002100E00146C3
:105680005B00DC0201F10100F9D5C0F1200422FA2F
:1056900004F423437F1A824070E702460B4600F071
:1056A000EFFC2A46234600F039FBBDE8F883BCF145
:1056B000000FABDAB3E701362046B6E720244FF0FF
:1056C000FF310020E3E702460B4600F025FB0246CF
:1056D0000B4600F0FFFDB4E70000F07F21F0004131
:1056E000704700BF41F0004101F58010C00F7047C6
:1056F0000020704700200149704700BF0000F87F7C
:10570000F0B5C1F30A5EAEF2FF36132E83B0024647
:105710000B460C464FEAD17507462EDC002E49DBBE
:105720003B49314103EA010010432BD049080B40AB
:1057300053EA02070CD04FF48023132E24EA010110
:1057400043FA06F444EA01040CBF4FF00047002777
:10575000304B03EBC5052146D5E9004538462246C6
:105760002B4600F0DBFACDE9000122462B46DDE9AD
:10577000000100F0D1FA03B0F0BD332E06DDB6F51E
:10578000806F42D01046194603B0F0BDAEF2134E02
:105790004FF0FF3121FA0EF10842F3D049080842D8
:1057A000D6D04FF0804320EA010143FA0EFE4EEAC4
:1057B0000107CDE721F000410143E3D0C3F313011A
:1057C000144E41EA000CCCF1000106EBC506D6E907
:1057D000006741EA0C0C5C0C4FEA1C3C0CF4002CFA
:1057E00064044CEA040132463B4600F097FACDE9E6
:1057F00000013B463246DDE9000100F08DFA21F060
:10580000004444EAC5731946BEE700F087FABBE7D7
:10581000FFFF0F0030B60000F8B5C1F30A5604468A
:105820000D460B46174606BB21F00043034325D027
:105830000022354B00F024FC344A974204460D46C2
:105840000B462ADBC1F30A56363E3E4440F2FE7256
:10585000964228DC002E12DD23F0FF4323F4E00300
:1058600043EA065520462946F8BD40F2FF729642AB
:10587000EBD102460B4600F051FAF8BDF8BD16F127
:10588000350F1DDA4CF250339F4222462B4625DC61
:1058900019A1D1E9000100F033FA17A3D3E90023DD
:1058A00000F0EEFBF8BD22462B4615A1D1E9000120
:1058B00000F026FA12A3D3E9002300F0E1FBF8BDC3
:1058C00023F0FF4323F4E003363643EA065520462F
:1058D000294600220E4B00F0D3FBF8BD08A1D1E908
:1058E000000100F00DFA06A3D3E9002300F0C8FB85
:1058F000F8BD00BFAFF3008059F3F8C21F6EA501D9
:105900009C7500883CE4377E00005043B03CFFFFAC
:105910000000903CFFFFFFFF2DE9F04FB1F5801F25
:1059200085B006460F460B465ADA024621F000447F
:10593000224300F0F8800029C0F27A810022D64B81
:1059400000F09EFB0B460F46D4498B4206466FF093
:1059500035024ADCC3F3130505F5152404F6647417
:1059600004F4801E8EF07F5181F440111B15A3F2C8
:10597000FF3341EA05079C1830460022C84B3946E0
:1059800004EB1E5400F0C8F9AB1CC3F31303022B45
:1059900082468B464FF0000230DC002300F0D8FD39
:1059A000002800F0C980002C00F04B81204600F058
:1059B00001FBA5A3D3E9002306460F4600F060FBD8
:1059C000A3A3D3E9002304460D463046394600F030
:1059D00057FB02460B462046294600F09FF90AE095
:1059E000AE498B424FF00002B4DD32463B463046B2
:1059F000394600F093F905B0BDE8F08F4FF08043D1
:105A000000F08CF902460B465046594600F062FC05
:105A1000064620460F4600F0CDFA3246CDE9000199
:105A20003B4630463946CDE9026700F029FB024685
:105A30000B468046894600F023FB87A3D3E9002369
:105A400006460F4600F01CFB85A3D3E9002300F0B7
:105A500065F932463B4600F013FB83A3D3E90023EC
:105A600000F05CF932463B4600F00AFB80A3D3E924
:105A7000002300F053F942464B4600F001FB7EA3A1
:105A8000D3E90023804689463046394600F0F8FACB
:105A90007BA3D3E9002300F041F932463B4600F0F6
:105AA000EFFA79A3D3E9002300F038F932463B46F8
:105AB00000F0E6FA0B4602464946404600F02EF951
:105AC000A5F5C223C5F5D725A3F27A4351351D4369
:105AD000002D8046894656DD0022724B50465946BD
